{
  "transactions": [
    {
      "hash": "0xb44161041c889d02b7859cef02807550f11baf1042f5625533b2f8ebf72a4b2e",
      "transactionType": "CREATE",
      "contractName": "BoxV2",
      "contractAddress": "0x1Be1B4dc9f84E91c8A27d6E1f12731B049222B06",
      "function": null,
      "arguments": null,
      "transaction": {
        "type": "0x02",
        "from": "0x2d62c88c6ad046c8a76cb992e2ab6787ad1d615a",
        "gas": "0xd7a85",
        "value": "0x0",
        "data": "0x60a06040523060805234801561001457600080fd5b5061001d610022565b6100d4565b7ff0c57e16840df040f15088dc2f81fe391c3923bec73e23a9662efc9c229c6a00805468010000000000000000900460ff16156100725760405163f92ee8a960e01b815260040160405180910390fd5b80546001600160401b03908116146100d15780546001600160401b0319166001600160401b0390811782556040519081527fc7f505b2f371ae2175ee4913f4499e1f2633a7b5936321eed1cdaeb6115181d29060200160405180910390a15b50565b608051610add6100fd600039600081816103ed01528181610416015261055c0152610add6000f3fe6080604052600436106100915760003560e01c8063715018a611610059578063715018a6146101415780638da5cb5b14610156578063ad3cb1cc1461019d578063f2c9ecd8146101db578063f2fde38b146101f057600080fd5b80630d8e6e2c146100965780631798de81146100c95780633fb5c1cb146100eb5780634f1ef2861461010b57806352d1902d1461011e575b600080fd5b3480156100a257600080fd5b506100ab610210565b60405167ffffffffffffffff90911681526020015b60405180910390f35b3480156100d557600080fd5b506100e96100e43660046108ab565b610249565b005b3480156100f757600080fd5b506100e96101063660046108ef565b600055565b6100e961011936600461091e565b610336565b34801561012a57600080fd5b50610133610355565b6040519081526020016100c0565b34801561014d57600080fd5b506100e9610372565b34801561016257600080fd5b507f9016d09d72d40fdae2fd8ceac6b6234c7706214fd39c1cd1e609a0528c199300546040516001600160a01b0390911681526020016100c0565b3480156101a957600080fd5b506101ce604051806040016040528060058152602001640352e302e360dc1b81525081565b6040516100c09190610a04565b3480156101e757600080fd5b50600054610133565b3480156101fc57600080fd5b506100e961020b366004610a37565b610386565b60006102447ff0c57e16840df040f15088dc2f81fe391c3923bec73e23a9662efc9c229c6a005467ffffffffffffffff1690565b905090565b7ff0c57e16840df040f15088dc2f81fe391c3923bec73e23a9662efc9c229c6a008054829190600160401b900460ff16806102925750805467ffffffffffffffff808416911610155b156102b05760405163f92ee8a960e01b815260040160405180910390fd5b805468ffffffffffffffffff191667ffffffffffffffff831617600160401b1781556102db846103c9565b6102e36103da565b805468ff00000000000000001916815560405167ffffffffffffffff831681527fc7f505b2f371ae2175ee4913f4499e1f2633a7b5936321eed1cdaeb6115181d29060200160405180910390a150505050565b61033e6103e2565b61034782610487565b610351828261048f565b5050565b600061035f610551565b50600080516020610a8883398151915290565b61037a61059a565b61038460006105f5565b565b61038e61059a565b6001600160a01b0381166103bd57604051631e4fbdf760e01b8152600060048201526024015b60405180910390fd5b6103c6816105f5565b50565b6103d1610666565b6103c6816106af565b610384610666565b306001600160a01b037f000000000000000000000000000000000000000000000000000000000000000016148061046957507f00000000000000000000000000000000000000000000000000000000000000006001600160a01b031661045d600080516020610a88833981519152546001600160a01b031690565b6001600160a01b031614155b156103845760405163703e46dd60e11b815260040160405180910390fd5b6103c661059a565b816001600160a01b03166352d1902d6040518163ffffffff1660e01b8152600401602060405180830381865afa9250505080156104e9575060408051601f3d908101601f191682019092526104e691810190610a52565b60015b61051157604051634c9c8ce360e01b81526001600160a01b03831660048201526024016103b4565b600080516020610a88833981519152811461054257604051632a87526960e21b8152600481018290526024016103b4565b61054c83836106b7565b505050565b306001600160a01b037f000000000000000000000000000000000000000000000000000000000000000016146103845760405163703e46dd60e11b815260040160405180910390fd5b336105cc7f9016d09d72d40fdae2fd8ceac6b6234c7706214fd39c1cd1e609a0528c199300546001600160a01b031690565b6001600160a01b0316146103845760405163118cdaa760e01b81523360048201526024016103b4565b7f9016d09d72d40fdae2fd8ceac6b6234c7706214fd39c1cd1e609a0528c19930080546001600160a01b031981166001600160a01b03848116918217845560405192169182907f8be0079c531659141344cd1fd0a4f28419497f9722a3daafe3b4186f6b6457e090600090a3505050565b7ff0c57e16840df040f15088dc2f81fe391c3923bec73e23a9662efc9c229c6a0054600160401b900460ff1661038457604051631afcd79f60e31b815260040160405180910390fd5b61038e610666565b6106c08261070d565b6040516001600160a01b038316907fbc7cd75a20ee27fd9adebab32041f755214dbc6bffa90cc0225b39da2e5c2d3b90600090a28051156107055761054c8282610772565b6103516107e8565b806001600160a01b03163b60000361074357604051634c9c8ce360e01b81526001600160a01b03821660048201526024016103b4565b600080516020610a8883398151915280546001600160a01b0319166001600160a01b0392909216919091179055565b6060600080846001600160a01b03168460405161078f9190610a6b565b600060405180830381855af49150503d80600081146107ca576040519150601f19603f3d011682016040523d82523d6000602084013e6107cf565b606091505b50915091506107df858383610807565b95945050505050565b34156103845760405163b398979f60e01b815260040160405180910390fd5b60608261081c5761081782610866565b61085f565b815115801561083357506001600160a01b0384163b155b1561085c57604051639996b31560e01b81526001600160a01b03851660048201526024016103b4565b50805b9392505050565b8051156108765780518082602001fd5b604051630a12f52160e11b815260040160405180910390fd5b80356001600160a01b03811681146108a657600080fd5b919050565b600080604083850312156108be57600080fd5b6108c78361088f565b9150602083013567ffffffffffffffff811681146108e457600080fd5b809150509250929050565b60006020828403121561090157600080fd5b5035919050565b634e487b7160e01b600052604160045260246000fd5b6000806040838503121561093157600080fd5b61093a8361088f565b9150602083013567ffffffffffffffff8082111561095757600080fd5b818501915085601f83011261096b57600080fd5b81358181111561097d5761097d610908565b604051601f8201601f19908116603f011681019083821181831017156109a5576109a5610908565b816040528281528860208487010111156109be57600080fd5b8260208601602083013760006020848301015280955050505050509250929050565b60005b838110156109fb5781810151838201526020016109e3565b50506000910152565b6020815260008251806020840152610a238160408501602087016109e0565b601f01601f19169190910160400192915050565b600060208284031215610a4957600080fd5b61085f8261088f565b600060208284031215610a6457600080fd5b5051919050565b60008251610a7d8184602087016109e0565b919091019291505056fe360894a13ba1a3210667c828492db98dca3e2076cc3735a920a3ca505d382bbca2646970667358221220a989f6b191111aaa547ae854ae67e8dba4bcbedce427103c3b0ce9a86c44783264736f6c63430008180033",
        "nonce": "0xd0",
        "accessList": []
      },
      "additionalContracts": [],
      "isFixedGasLimit": false
    },
    {
      "hash": "0x6b2a78ed34d43fcdba50f1a47563a40265102f884ca72404dffd66087833089e",
      "transactionType": "CALL",
      "contractName": null,
      "contractAddress": "0x47Cf5F26f7D21f5d47EC7421A4e201D6E9b43071",
      "function": "upgradeToAndCall(address,bytes)",
      "arguments": [
        "0x1Be1B4dc9f84E91c8A27d6E1f12731B049222B06",
        "0x1798de810000000000000000000000002d62c88c6ad046c8a76cb992e2ab6787ad1d615a0000000000000000000000000000000000000000000000000000000000000002"
      ],
      "transaction": {
        "type": "0x02",
        "from": "0x2d62c88c6ad046c8a76cb992e2ab6787ad1d615a",
        "to": "0x47cf5f26f7d21f5d47ec7421a4e201d6e9b43071",
        "gas": "0x10697",
        "value": "0x0",
        "data": "0x4f1ef2860000000000000000000000001be1b4dc9f84e91c8a27d6e1f12731b049222b06000000000000000000000000000000000000000000000000000000000000004000000000000000000000000000000000000000000000000000000000000000441798de810000000000000000000000002d62c88c6ad046c8a76cb992e2ab6787ad1d615a000000000000000000000000000000000000000000000000000000000000000200000000000000000000000000000000000000000000000000000000",
        "nonce": "0xd1",
        "accessList": []
      },
      "additionalContracts": [],
      "isFixedGasLimit": false
    }
  ],
  "receipts": [
    {
      "transactionHash": "0xb44161041c889d02b7859cef02807550f11baf1042f5625533b2f8ebf72a4b2e",
      "transactionIndex": "0x9",
      "blockHash": "0x86599d1bb3f2e1610b805b581f50a77e65c74370afee05bef11fee38d14efa1c",
      "blockNumber": "0x65a82c",
      "from": "0x2D62c88C6Ad046C8A76cb992E2ab6787aD1d615a",
      "to": null,
      "cumulativeGasUsed": "0x1e047c",
      "gasUsed": "0xa5efd",
      "contractAddress": "0x1Be1B4dc9f84E91c8A27d6E1f12731B049222B06",
      "logs": [
        {
          "address": "0x1Be1B4dc9f84E91c8A27d6E1f12731B049222B06",
          "topics": [
            "0xc7f505b2f371ae2175ee4913f4499e1f2633a7b5936321eed1cdaeb6115181d2"
          ],
          "data": "0x000000000000000000000000000000000000000000000000ffffffffffffffff",
          "blockHash": "0x86599d1bb3f2e1610b805b581f50a77e65c74370afee05bef11fee38d14efa1c",
          "blockNumber": "0x65a82c",
          "transactionHash": "0xb44161041c889d02b7859cef02807550f11baf1042f5625533b2f8ebf72a4b2e",
          "transactionIndex": "0x9",
          "logIndex": "0x7",
          "removed": false
        }
      ],
      "status": "0x1",
      "logsBloom": "0x00000000000000000000000002000000000000000000000000000000000000000010000000000000000000000000000000000000000000000000000000000000000000000000000000000000000000000000000000000000000000000000000000000000000000000000000000000000000000000000000000000000000000000010000000000000000800000000000000000000000080000000000000000000000000000000000000000000000000000000000000000000000000000000000000000000000000000000000000000000000000000004000000000000000000000000000000000000000000000000000000000000000000000000000000000000",
      "type": "0x2",
      "effectiveGasPrice": "0x2380c3827"
    },
    {
      "transactionHash": "0x6b2a78ed34d43fcdba50f1a47563a40265102f884ca72404dffd66087833089e",
      "transactionIndex": "0xa",
      "blockHash": "0x86599d1bb3f2e1610b805b581f50a77e65c74370afee05bef11fee38d14efa1c",
      "blockNumber": "0x65a82c",
      "from": "0x2D62c88C6Ad046C8A76cb992E2ab6787aD1d615a",
      "to": "0x47Cf5F26f7D21f5d47EC7421A4e201D6E9b43071",
      "cumulativeGasUsed": "0x1ec299",
      "gasUsed": "0xbe1d",
      "contractAddress": null,
      "logs": [
        {
          "address": "0x47Cf5F26f7D21f5d47EC7421A4e201D6E9b43071",
          "topics": [
            "0xbc7cd75a20ee27fd9adebab32041f755214dbc6bffa90cc0225b39da2e5c2d3b",
            "0x0000000000000000000000001be1b4dc9f84e91c8a27d6e1f12731b049222b06"
          ],
          "data": "0x",
          "blockHash": "0x86599d1bb3f2e1610b805b581f50a77e65c74370afee05bef11fee38d14efa1c",
          "blockNumber": "0x65a82c",
          "transactionHash": "0x6b2a78ed34d43fcdba50f1a47563a40265102f884ca72404dffd66087833089e",
          "transactionIndex": "0xa",
          "logIndex": "0x8",
          "removed": false
        },
        {
          "address": "0x47Cf5F26f7D21f5d47EC7421A4e201D6E9b43071",
          "topics": [
            "0x8be0079c531659141344cd1fd0a4f28419497f9722a3daafe3b4186f6b6457e0",
            "0x0000000000000000000000002d62c88c6ad046c8a76cb992e2ab6787ad1d615a",
            "0x0000000000000000000000002d62c88c6ad046c8a76cb992e2ab6787ad1d615a"
          ],
          "data": "0x",
          "blockHash": "0x86599d1bb3f2e1610b805b581f50a77e65c74370afee05bef11fee38d14efa1c",
          "blockNumber": "0x65a82c",
          "transactionHash": "0x6b2a78ed34d43fcdba50f1a47563a40265102f884ca72404dffd66087833089e",
          "transactionIndex": "0xa",
          "logIndex": "0x9",
          "removed": false
        },
        {
          "address": "0x47Cf5F26f7D21f5d47EC7421A4e201D6E9b43071",
          "topics": [
            "0xc7f505b2f371ae2175ee4913f4499e1f2633a7b5936321eed1cdaeb6115181d2"
          ],
          "data": "0x0000000000000000000000000000000000000000000000000000000000000002",
          "blockHash": "0x86599d1bb3f2e1610b805b581f50a77e65c74370afee05bef11fee38d14efa1c",
          "blockNumber": "0x65a82c",
          "transactionHash": "0x6b2a78ed34d43fcdba50f1a47563a40265102f884ca72404dffd66087833089e",
          "transactionIndex": "0xa",
          "logIndex": "0xa",
          "removed": false
        }
      ],
      "status": "0x1",
      "logsBloom": "0x00000000000000000020000000000000400000000000000000810100000000000002000000000000000200000000000000000000000000000000000000000000000000000000000000000000000002000001000000000000000000004000020000000000000000000000000000000000000000000000000000000000000000400000000000000000000800000000000000000000000080000000000000000000000000000000000000000000000000000000000000000000000000000000000000000020000000020000000000000000000000000004000000000040000000000000000000000000000000000000000000000000000000000000000000000000",
      "type": "0x2",
      "effectiveGasPrice": "0x2380c3827"
    }
  ],
  "libraries": [],
  "pending": [],
  "returns": {
    "0": {
      "internal_type": "address",
      "value": "0x47Cf5F26f7D21f5d47EC7421A4e201D6E9b43071"
    }
  },
  "timestamp": 1725902906,
  "chain": 11155111,
  "multi": false,
  "commit": "6413551"
}